{
  "contractName": "Item",
  "abi": [
    {
      "inputs": [
        {
          "internalType": "contract ItemManager",
          "name": "_parentContract",
          "type": "address"
        },
        {
          "internalType": "uint256",
          "name": "_priceInWei",
          "type": "uint256"
        },
        {
          "internalType": "uint256",
          "name": "_index",
          "type": "uint256"
        }
      ],
      "stateMutability": "nonpayable",
      "type": "constructor"
    },
    {
      "stateMutability": "nonpayable",
      "type": "fallback"
    },
    {
      "inputs": [],
      "name": "index",
      "outputs": [
        {
          "internalType": "uint256",
          "name": "",
          "type": "uint256"
        }
      ],
      "stateMutability": "view",
      "type": "function"
    },
    {
      "inputs": [],
      "name": "paidWei",
      "outputs": [
        {
          "internalType": "uint256",
          "name": "",
          "type": "uint256"
        }
      ],
      "stateMutability": "view",
      "type": "function"
    },
    {
      "inputs": [],
      "name": "priceInWei",
      "outputs": [
        {
          "internalType": "uint256",
          "name": "",
          "type": "uint256"
        }
      ],
      "stateMutability": "view",
      "type": "function"
    },
    {
      "stateMutability": "payable",
      "type": "receive"
    }
  ],
  "bytecode": "0x608060405234801561001057600080fd5b506040516104b03803806104b08339818101604052606081101561003357600080fd5b81019080805190602001909291908051906020019092919080519060200190929190505050816000819055508060028190555082600360006101000a81548173ffffffffffffffffffffffffffffffffffffffff021916908373ffffffffffffffffffffffffffffffffffffffff1602179055505050506103f7806100b96000396000f3fe6080604052600436106100385760003560e01c80632986c0e51461030d5780633c8da5881461033857806383d12eef14610363576102fe565b366102fe576000543414610097576040517f08c379a00000000000000000000000000000000000000000000000000000000081526004018080602001828103825260218152602001806103a16021913960400191505060405180910390fd5b60006001541461010f576040517f08c379a00000000000000000000000000000000000000000000000000000000081526004018080602001828103825260158152602001807f4974656d20697320616c7265616479207061696421000000000000000000000081525060200191505060405180910390fd5b346001600082825401925050819055506000600360009054906101000a900473ffffffffffffffffffffffffffffffffffffffff1673ffffffffffffffffffffffffffffffffffffffff16600254604051602401808281526020019150506040516020818303038152906040527f800fb83f000000000000000000000000000000000000000000000000000000007bffffffffffffffffffffffffffffffffffffffffffffffffffffffff19166020820180517bffffffffffffffffffffffffffffffffffffffffffffffffffffffff83818316178352505050506040518082805190602001908083835b6020831061021d57805182526020820191506020810190506020830392506101fa565b6001836020036101000a0380198251168184511680821785525050505050509050019150506000604051808303816000865af19150503d806000811461027f576040519150601f19603f3d011682016040523d82523d6000602084013e610284565b606091505b50509050806102fb576040517f08c379a00000000000000000000000000000000000000000000000000000000081526004018080602001828103825260158152602001807f44656c697665727920646964206e6f7420776f726b000000000000000000000081525060200191505060405180910390fd5b50005b34801561030a57600080fd5b50005b34801561031957600080fd5b5061032261038e565b6040518082815260200191505060405180910390f35b34801561034457600080fd5b5061034d610394565b6040518082815260200191505060405180910390f35b34801561036f57600080fd5b5061037861039a565b6040518082815260200191505060405180910390f35b60025481565b60005481565b6001548156fe576520646f6e277420737570706f7274207061727469616c207061796d656e7473a2646970667358221220e52c84d2adc67dc1224b85ad66979d568afbef4fcbb66025587d74e15434345264736f6c63430006000033",
  "source": "pragma solidity ^0.6.0;\r\nimport \"./ItemManager.sol\";\r\ncontract Item {\r\n uint public priceInWei;\r\n uint public paidWei;\r\n uint public index;\r\n\r\n ItemManager parentContract;\r\n\r\n constructor(ItemManager _parentContract, uint _priceInWei, uint _index) public {\r\n    priceInWei = _priceInWei;\r\n    index = _index;\r\n    parentContract = _parentContract;\r\n }\r\n\r\n receive() external payable {\r\n    require(msg.value == priceInWei, \"We don't support partial payments\");\r\n    require(paidWei == 0, \"Item is already paid!\");\r\n    paidWei += msg.value;\r\n    //(bool success, ) = address(parentContract).call{value:msg.value}(abi.encodeWithSignature(\"triggerPayment(uint256)\", index));\r\n        (bool success, ) = address(parentContract).call(abi.encodeWithSignature(\"triggerPayment(uint256)\", index));\r\n    require(success, \"Delivery did not work\");\r\n }\r\n\r\n fallback () external {\r\n\r\n }\r\n\r\n}",
  "sourcePath": "D:\\Taylor\\Documents\\udemy\\blockchain\\eventTrigger\\contracts\\Item.sol",
  "compiler": {
    "name": "solc",
    "version": "0.6.0+commit.26b70077.Emscripten.clang"
  },
  "schemaVersion": "3.0.20",
  "updatedAt": "2020-10-06T08:00:31.166Z",
  "devdoc": {
    "methods": {}
  },
  "userdoc": {
    "methods": {}
  }
}